{
  "_format": "hh-sol-artifact-1",
  "contractName": "OrderBasedSwap",
  "sourceName": "contracts/Swaptoken.sol",
  "abi": [
    {
      "inputs": [],
      "name": "DepositFailed",
      "type": "error"
    },
    {
      "inputs": [],
      "name": "InSufficientBalance",
      "type": "error"
    },
    {
      "inputs": [],
      "name": "InvalidOrder",
      "type": "error"
    },
    {
      "inputs": [],
      "name": "NotOwnerOfOrder",
      "type": "error"
    },
    {
      "inputs": [],
      "name": "OrderCanceledAlready",
      "type": "error"
    },
    {
      "inputs": [],
      "name": "OrderCompletedAlready",
      "type": "error"
    },
    {
      "inputs": [],
      "name": "TransferToBuyerFailed",
      "type": "error"
    },
    {
      "inputs": [],
      "name": "TransferToDepositorFailed",
      "type": "error"
    },
    {
      "inputs": [],
      "name": "ZeroAddressNotAllowed",
      "type": "error"
    },
    {
      "inputs": [],
      "name": "ZeroValueNotAllowed",
      "type": "error"
    },
    {
      "anonymous": false,
      "inputs": [
        {
          "indexed": true,
          "internalType": "address",
          "name": "depositor",
          "type": "address"
        },
        {
          "indexed": true,
          "internalType": "address",
          "name": "_tokenIn",
          "type": "address"
        },
        {
          "indexed": true,
          "internalType": "uint256",
          "name": "_amountIn",
          "type": "uint256"
        },
        {
          "indexed": false,
          "internalType": "uint256",
          "name": "_timeCancelled",
          "type": "uint256"
        }
      ],
      "name": "OrderCancelledSuccessfully",
      "type": "event"
    },
    {
      "anonymous": false,
      "inputs": [
        {
          "indexed": true,
          "internalType": "address",
          "name": "depositor",
          "type": "address"
        },
        {
          "indexed": true,
          "internalType": "address",
          "name": "_tokenIn",
          "type": "address"
        },
        {
          "indexed": true,
          "internalType": "uint256",
          "name": "_amountIn",
          "type": "uint256"
        },
        {
          "indexed": false,
          "internalType": "uint256",
          "name": "_amountOut",
          "type": "uint256"
        },
        {
          "indexed": false,
          "internalType": "address",
          "name": "_tokenOut",
          "type": "address"
        },
        {
          "indexed": false,
          "internalType": "uint256",
          "name": "_timeCreated",
          "type": "uint256"
        }
      ],
      "name": "OrderCreatedSuccessfully",
      "type": "event"
    },
    {
      "anonymous": false,
      "inputs": [
        {
          "indexed": true,
          "internalType": "address",
          "name": "buyer",
          "type": "address"
        },
        {
          "indexed": true,
          "internalType": "uint256",
          "name": "_amountPaid",
          "type": "uint256"
        },
        {
          "indexed": true,
          "internalType": "uint256",
          "name": "_amountReceived",
          "type": "uint256"
        },
        {
          "indexed": false,
          "internalType": "address",
          "name": "_orderCreator",
          "type": "address"
        },
        {
          "indexed": false,
          "internalType": "address",
          "name": "_tokenPaid",
          "type": "address"
        },
        {
          "indexed": false,
          "internalType": "address",
          "name": "_tokenReceived",
          "type": "address"
        },
        {
          "indexed": false,
          "internalType": "uint256",
          "name": "_timeExecuted",
          "type": "uint256"
        }
      ],
      "name": "OrderExecutedSuccessfully",
      "type": "event"
    },
    {
      "inputs": [
        {
          "internalType": "uint256",
          "name": "_orderId",
          "type": "uint256"
        }
      ],
      "name": "buyOrder",
      "outputs": [],
      "stateMutability": "nonpayable",
      "type": "function"
    },
    {
      "inputs": [
        {
          "internalType": "uint256",
          "name": "_orderId",
          "type": "uint256"
        }
      ],
      "name": "cancelOrder",
      "outputs": [],
      "stateMutability": "nonpayable",
      "type": "function"
    },
    {
      "inputs": [
        {
          "internalType": "uint256",
          "name": "_amountIn",
          "type": "uint256"
        },
        {
          "internalType": "address",
          "name": "_tokenIn",
          "type": "address"
        },
        {
          "internalType": "uint256",
          "name": "_amountOut",
          "type": "uint256"
        },
        {
          "internalType": "address",
          "name": "_tokenOut",
          "type": "address"
        }
      ],
      "name": "createOrder",
      "outputs": [],
      "stateMutability": "nonpayable",
      "type": "function"
    },
    {
      "inputs": [],
      "name": "getMyOrders",
      "outputs": [
        {
          "internalType": "uint256[]",
          "name": "",
          "type": "uint256[]"
        }
      ],
      "stateMutability": "view",
      "type": "function"
    },
    {
      "inputs": [
        {
          "internalType": "uint256",
          "name": "_orderId",
          "type": "uint256"
        }
      ],
      "name": "getOrder",
      "outputs": [
        {
          "components": [
            {
              "internalType": "uint256",
              "name": "id",
              "type": "uint256"
            },
            {
              "internalType": "uint256",
              "name": "amountIn",
              "type": "uint256"
            },
            {
              "internalType": "uint256",
              "name": "amountOut",
              "type": "uint256"
            },
            {
              "internalType": "bool",
              "name": "isCompleted",
              "type": "bool"
            },
            {
              "internalType": "bool",
              "name": "isCanceled",
              "type": "bool"
            },
            {
              "internalType": "address",
              "name": "tokenIn",
              "type": "address"
            },
            {
              "internalType": "address",
              "name": "tokenOut",
              "type": "address"
            },
            {
              "internalType": "address",
              "name": "depositor",
              "type": "address"
            },
            {
              "internalType": "address",
              "name": "buyer",
              "type": "address"
            },
            {
              "internalType": "uint256",
              "name": "timeCreated",
              "type": "uint256"
            },
            {
              "internalType": "uint256",
              "name": "timeCancelled",
              "type": "uint256"
            }
          ],
          "internalType": "struct OrderBasedSwap.SwapOrder",
          "name": "",
          "type": "tuple"
        }
      ],
      "stateMutability": "view",
      "type": "function"
    },
    {
      "inputs": [],
      "name": "orderCount",
      "outputs": [
        {
          "internalType": "uint256",
          "name": "",
          "type": "uint256"
        }
      ],
      "stateMutability": "view",
      "type": "function"
    }
  ],
  "bytecode": "0x608060405234801561001057600080fd5b50611a28806100206000396000f3fe608060405234801561001057600080fd5b50600436106100625760003560e01c80630963cf5b1461006757806322f85eaa146100835780632453ffa81461009f578063514fcac7146100bd578063bab5933a146100d9578063d09ef241146100f7575b600080fd5b610081600480360381019061007c91906114e1565b610127565b005b61009d60048036038101906100989190611548565b6105ac565b005b6100a7610ac3565b6040516100b49190611584565b60405180910390f35b6100d760048036038101906100d29190611548565b610ac9565b005b6100e1610f59565b6040516100ee919061165d565b60405180910390f35b610111600480360381019061010c9190611548565b610ff7565b60405161011e919061178a565b60405180910390f35b61013033611224565b61013983611224565b61014281611224565b61014b8461128d565b6101548261128d565b61015e83336112ca565b841115610197576040517fc29e2ef800000000000000000000000000000000000000000000000000000000815260040160405180910390fd5b8273ffffffffffffffffffffffffffffffffffffffff166323b872dd3330876040518463ffffffff1660e01b81526004016101d4939291906117b5565b6020604051808303816000875af11580156101f3573d6000803e3d6000fd5b505050506040513d601f19601f820116820180604052508101906102179190611818565b61024d576040517f79cacff100000000000000000000000000000000000000000000000000000000815260040160405180910390fd5b6000600160005461025e9190611874565b905060006040518061016001604052808381526020018781526020018581526020016000151581526020016000151581526020018673ffffffffffffffffffffffffffffffffffffffff1681526020018473ffffffffffffffffffffffffffffffffffffffff1681526020013373ffffffffffffffffffffffffffffffffffffffff168152602001600073ffffffffffffffffffffffffffffffffffffffff16815260200142815260200160008152509050806001600084815260200190815260200160002060008201518160000155602082015181600101556040820151816002015560608201518160030160006101000a81548160ff02191690831515021790555060808201518160030160016101000a81548160ff02191690831515021790555060a08201518160030160026101000a81548173ffffffffffffffffffffffffffffffffffffffff021916908373ffffffffffffffffffffffffffffffffffffffff16021790555060c08201518160040160006101000a81548173ffffffffffffffffffffffffffffffffffffffff021916908373ffffffffffffffffffffffffffffffffffffffff16021790555060e08201518160050160006101000a81548173ffffffffffffffffffffffffffffffffffffffff021916908373ffffffffffffffffffffffffffffffffffffffff1602179055506101008201518160060160006101000a81548173ffffffffffffffffffffffffffffffffffffffff021916908373ffffffffffffffffffffffffffffffffffffffff16021790555061012082015181600701556101408201518160080155905050600260003373ffffffffffffffffffffffffffffffffffffffff1673ffffffffffffffffffffffffffffffffffffffff168152602001908152602001600020829080600181540180825580915050600190039060005260206000200160009091909190915055600080815480929190610530906118a8565b9190505550858573ffffffffffffffffffffffffffffffffffffffff163373ffffffffffffffffffffffffffffffffffffffff167f7dc363c20d460feb70e393f48d0cfcabc22f9b2072437b93274c0cdf8aeb2e2f878786610120015160405161059c939291906118f0565b60405180910390a4505050505050565b6105b533611224565b6105be8161128d565b6105c781611360565b6105fd576040517faf61069300000000000000000000000000000000000000000000000000000000815260040160405180910390fd5b600060016000838152602001908152602001600020604051806101600160405290816000820154815260200160018201548152602001600282015481526020016003820160009054906101000a900460ff161515151581526020016003820160019054906101000a900460ff161515151581526020016003820160029054906101000a900473ffffffffffffffffffffffffffffffffffffffff1673ffffffffffffffffffffffffffffffffffffffff1673ffffffffffffffffffffffffffffffffffffffff1681526020016004820160009054906101000a900473ffffffffffffffffffffffffffffffffffffffff1673ffffffffffffffffffffffffffffffffffffffff1673ffffffffffffffffffffffffffffffffffffffff1681526020016005820160009054906101000a900473ffffffffffffffffffffffffffffffffffffffff1673ffffffffffffffffffffffffffffffffffffffff1673ffffffffffffffffffffffffffffffffffffffff1681526020016006820160009054906101000a900473ffffffffffffffffffffffffffffffffffffffff1673ffffffffffffffffffffffffffffffffffffffff1673ffffffffffffffffffffffffffffffffffffffff16815260200160078201548152602001600882015481525050905080606001511561081c576040517f55c97c4a00000000000000000000000000000000000000000000000000000000815260040160405180910390fd5b806080015115610858576040517fcb566d6400000000000000000000000000000000000000000000000000000000815260040160405180910390fd5b60006108688260c00151336112ca565b905080826040015111156108a8576040517fc29e2ef800000000000000000000000000000000000000000000000000000000815260040160405180910390fd5b600180600085815260200190815260200160002060030160006101000a81548160ff0219169083151502179055508160c0015173ffffffffffffffffffffffffffffffffffffffff166323b872dd338460e0015185604001516040518463ffffffff1660e01b815260040161091f939291906117b5565b6020604051808303816000875af115801561093e573d6000803e3d6000fd5b505050506040513d601f19601f820116820180604052508101906109629190611818565b610998576040517fa4f731f900000000000000000000000000000000000000000000000000000000815260040160405180910390fd5b8160a0015173ffffffffffffffffffffffffffffffffffffffff1663a9059cbb3384602001516040518363ffffffff1660e01b81526004016109db929190611927565b6020604051808303816000875af11580156109fa573d6000803e3d6000fd5b505050506040513d601f19601f82011682018060405250810190610a1e9190611818565b610a54576040517fb24b704a00000000000000000000000000000000000000000000000000000000815260040160405180910390fd5b816020015182604001513373ffffffffffffffffffffffffffffffffffffffff167f3e82cc9a1ff3d3e980b5908ec8215ac62097126f535873da0bd677b17e16e6908560e001518660c001518760a0015142604051610ab69493929190611950565b60405180910390a4505050565b60005481565b610ad233611224565b610adb8161128d565b610ae481611360565b610b1a576040517faf61069300000000000000000000000000000000000000000000000000000000815260040160405180910390fd5b600060016000838152602001908152602001600020604051806101600160405290816000820154815260200160018201548152602001600282015481526020016003820160009054906101000a900460ff161515151581526020016003820160019054906101000a900460ff161515151581526020016003820160029054906101000a900473ffffffffffffffffffffffffffffffffffffffff1673ffffffffffffffffffffffffffffffffffffffff1673ffffffffffffffffffffffffffffffffffffffff1681526020016004820160009054906101000a900473ffffffffffffffffffffffffffffffffffffffff1673ffffffffffffffffffffffffffffffffffffffff1673ffffffffffffffffffffffffffffffffffffffff1681526020016005820160009054906101000a900473ffffffffffffffffffffffffffffffffffffffff1673ffffffffffffffffffffffffffffffffffffffff1673ffffffffffffffffffffffffffffffffffffffff1681526020016006820160009054906101000a900473ffffffffffffffffffffffffffffffffffffffff1673ffffffffffffffffffffffffffffffffffffffff1673ffffffffffffffffffffffffffffffffffffffff1681526020016007820154815260200160088201548152505090503373ffffffffffffffffffffffffffffffffffffffff168160e0015173ffffffffffffffffffffffffffffffffffffffff1614610d66576040517f99c530f800000000000000000000000000000000000000000000000000000000815260040160405180910390fd5b806060015115610da2576040517f55c97c4a00000000000000000000000000000000000000000000000000000000815260040160405180910390fd5b806080015115610dde576040517fcb566d6400000000000000000000000000000000000000000000000000000000815260040160405180910390fd5b600180600084815260200190815260200160002060030160016101000a81548160ff0219169083151502179055504260016000848152602001908152602001600020600801819055508060a0015173ffffffffffffffffffffffffffffffffffffffff1663a9059cbb3383602001516040518363ffffffff1660e01b8152600401610e6a929190611927565b6020604051808303816000875af1158015610e89573d6000803e3d6000fd5b505050506040513d601f19601f82011682018060405250810190610ead9190611818565b610ee3576040517fa4f731f900000000000000000000000000000000000000000000000000000000815260040160405180910390fd5b80602001518160a0015173ffffffffffffffffffffffffffffffffffffffff168260e0015173ffffffffffffffffffffffffffffffffffffffff167f0a7f85589b26e0d931225abed11c8af10df8ecf7a1bff773e0db3d23b725c08342604051610f4d9190611584565b60405180910390a45050565b6060610f6433611224565b600260003373ffffffffffffffffffffffffffffffffffffffff1673ffffffffffffffffffffffffffffffffffffffff168152602001908152602001600020805480602002602001604051908101604052809291908181526020018280548015610fed57602002820191906000526020600020905b815481526020019060010190808311610fd9575b5050505050905090565b610fff611392565b61100882611360565b61103e576040517faf61069300000000000000000000000000000000000000000000000000000000815260040160405180910390fd5b60016000838152602001908152602001600020604051806101600160405290816000820154815260200160018201548152602001600282015481526020016003820160009054906101000a900460ff161515151581526020016003820160019054906101000a900460ff161515151581526020016003820160029054906101000a900473ffffffffffffffffffffffffffffffffffffffff1673ffffffffffffffffffffffffffffffffffffffff1673ffffffffffffffffffffffffffffffffffffffff1681526020016004820160009054906101000a900473ffffffffffffffffffffffffffffffffffffffff1673ffffffffffffffffffffffffffffffffffffffff1673ffffffffffffffffffffffffffffffffffffffff1681526020016005820160009054906101000a900473ffffffffffffffffffffffffffffffffffffffff1673ffffffffffffffffffffffffffffffffffffffff1673ffffffffffffffffffffffffffffffffffffffff1681526020016006820160009054906101000a900473ffffffffffffffffffffffffffffffffffffffff1673ffffffffffffffffffffffffffffffffffffffff1673ffffffffffffffffffffffffffffffffffffffff168152602001600782015481526020016008820154815250509050919050565b600073ffffffffffffffffffffffffffffffffffffffff168173ffffffffffffffffffffffffffffffffffffffff160361128a576040517f8579befe00000000000000000000000000000000000000000000000000000000815260040160405180910390fd5b50565b600081116112c7576040517f9cf8540c00000000000000000000000000000000000000000000000000000000815260040160405180910390fd5b50565b60006112d583611224565b6112de82611224565b8273ffffffffffffffffffffffffffffffffffffffff166370a08231836040518263ffffffff1660e01b81526004016113179190611995565b602060405180830381865afa158015611334573d6000803e3d6000fd5b505050506040513d601f19601f8201168201806040525081019061135891906119c5565b905092915050565b600080600160008481526020019081526020016000206000015403611388576000905061138d565b600190505b919050565b604051806101600160405280600081526020016000815260200160008152602001600015158152602001600015158152602001600073ffffffffffffffffffffffffffffffffffffffff168152602001600073ffffffffffffffffffffffffffffffffffffffff168152602001600073ffffffffffffffffffffffffffffffffffffffff168152602001600073ffffffffffffffffffffffffffffffffffffffff16815260200160008152602001600081525090565b600080fd5b6000819050919050565b6114608161144d565b811461146b57600080fd5b50565b60008135905061147d81611457565b92915050565b600073ffffffffffffffffffffffffffffffffffffffff82169050919050565b60006114ae82611483565b9050919050565b6114be816114a3565b81146114c957600080fd5b50565b6000813590506114db816114b5565b92915050565b600080600080608085870312156114fb576114fa611448565b5b60006115098782880161146e565b945050602061151a878288016114cc565b935050604061152b8782880161146e565b925050606061153c878288016114cc565b91505092959194509250565b60006020828403121561155e5761155d611448565b5b600061156c8482850161146e565b91505092915050565b61157e8161144d565b82525050565b60006020820190506115996000830184611575565b92915050565b600081519050919050565b600082825260208201905092915050565b6000819050602082019050919050565b6115d48161144d565b82525050565b60006115e683836115cb565b60208301905092915050565b6000602082019050919050565b600061160a8261159f565b61161481856115aa565b935061161f836115bb565b8060005b8381101561165057815161163788826115da565b9750611642836115f2565b925050600181019050611623565b5085935050505092915050565b6000602082019050818103600083015261167781846115ff565b905092915050565b60008115159050919050565b6116948161167f565b82525050565b6116a3816114a3565b82525050565b610160820160008201516116c060008501826115cb565b5060208201516116d360208501826115cb565b5060408201516116e660408501826115cb565b5060608201516116f9606085018261168b565b50608082015161170c608085018261168b565b5060a082015161171f60a085018261169a565b5060c082015161173260c085018261169a565b5060e082015161174560e085018261169a565b5061010082015161175a61010085018261169a565b5061012082015161176f6101208501826115cb565b506101408201516117846101408501826115cb565b50505050565b6000610160820190506117a060008301846116a9565b92915050565b6117af816114a3565b82525050565b60006060820190506117ca60008301866117a6565b6117d760208301856117a6565b6117e46040830184611575565b949350505050565b6117f58161167f565b811461180057600080fd5b50565b600081519050611812816117ec565b92915050565b60006020828403121561182e5761182d611448565b5b600061183c84828501611803565b91505092915050565b7f4e487b7100000000000000000000000000000000000000000000000000000000600052601160045260246000fd5b600061187f8261144d565b915061188a8361144d565b92508282019050808211156118a2576118a1611845565b5b92915050565b60006118b38261144d565b91507fffffffffffffffffffffffffffffffffffffffffffffffffffffffffffffffff82036118e5576118e4611845565b5b600182019050919050565b60006060820190506119056000830186611575565b61191260208301856117a6565b61191f6040830184611575565b949350505050565b600060408201905061193c60008301856117a6565b6119496020830184611575565b9392505050565b600060808201905061196560008301876117a6565b61197260208301866117a6565b61197f60408301856117a6565b61198c6060830184611575565b95945050505050565b60006020820190506119aa60008301846117a6565b92915050565b6000815190506119bf81611457565b92915050565b6000602082840312156119db576119da611448565b5b60006119e9848285016119b0565b9150509291505056fea2646970667358221220c000c1a1ca44a30e5476624293065ec9d86ff35cd4ba087875d8e032d430158664736f6c63430008180033",
  "linkReferences": {},
  "deployedLinkReferences": {}
}